{
  "contractName": "Decentraskill",
  "abi": [
    {
      "inputs": [],
      "stateMutability": "nonpayable",
      "type": "constructor"
    },
    {
      "inputs": [
        {
          "internalType": "address",
          "name": "",
          "type": "address"
        }
      ],
      "name": "address_to_id",
      "outputs": [
        {
          "internalType": "uint256",
          "name": "",
          "type": "uint256"
        }
      ],
      "stateMutability": "view",
      "type": "function",
      "constant": true
    },
    {
      "inputs": [
        {
          "internalType": "uint256",
          "name": "",
          "type": "uint256"
        }
      ],
      "name": "certifications",
      "outputs": [
        {
          "internalType": "string",
          "name": "url",
          "type": "string"
        },
        {
          "internalType": "string",
          "name": "issue_date",
          "type": "string"
        },
        {
          "internalType": "string",
          "name": "valid_till",
          "type": "string"
        },
        {
          "internalType": "string",
          "name": "name",
          "type": "string"
        },
        {
          "internalType": "uint256",
          "name": "id",
          "type": "uint256"
        },
        {
          "internalType": "string",
          "name": "issuer",
          "type": "string"
        }
      ],
      "stateMutability": "view",
      "type": "function",
      "constant": true
    },
    {
      "inputs": [
        {
          "internalType": "uint256",
          "name": "",
          "type": "uint256"
        }
      ],
      "name": "companies",
      "outputs": [
        {
          "internalType": "uint256",
          "name": "id",
          "type": "uint256"
        },
        {
          "internalType": "string",
          "name": "name",
          "type": "string"
        },
        {
          "internalType": "string",
          "name": "password",
          "type": "string"
        },
        {
          "internalType": "address",
          "name": "wallet_address",
          "type": "address"
        }
      ],
      "stateMutability": "view",
      "type": "function",
      "constant": true
    },
    {
      "inputs": [
        {
          "internalType": "string",
          "name": "",
          "type": "string"
        }
      ],
      "name": "email_to_address",
      "outputs": [
        {
          "internalType": "address",
          "name": "",
          "type": "address"
        }
      ],
      "stateMutability": "view",
      "type": "function",
      "constant": true
    },
    {
      "inputs": [
        {
          "internalType": "string",
          "name": "",
          "type": "string"
        }
      ],
      "name": "email_to_password",
      "outputs": [
        {
          "internalType": "string",
          "name": "",
          "type": "string"
        }
      ],
      "stateMutability": "view",
      "type": "function",
      "constant": true
    },
    {
      "inputs": [
        {
          "internalType": "uint256",
          "name": "",
          "type": "uint256"
        }
      ],
      "name": "employees",
      "outputs": [
        {
          "internalType": "uint256",
          "name": "id",
          "type": "uint256"
        },
        {
          "internalType": "uint256",
          "name": "company_id",
          "type": "uint256"
        },
        {
          "internalType": "string",
          "name": "name",
          "type": "string"
        },
        {
          "internalType": "string",
          "name": "password",
          "type": "string"
        },
        {
          "internalType": "address",
          "name": "wallet_address",
          "type": "address"
        },
        {
          "internalType": "bool",
          "name": "is_employed",
          "type": "bool"
        },
        {
          "internalType": "bool",
          "name": "is_manager",
          "type": "bool"
        },
        {
          "internalType": "uint256",
          "name": "num_skill",
          "type": "uint256"
        }
      ],
      "stateMutability": "view",
      "type": "function",
      "constant": true
    },
    {
      "inputs": [
        {
          "internalType": "uint256",
          "name": "",
          "type": "uint256"
        }
      ],
      "name": "endorsments",
      "outputs": [
        {
          "internalType": "uint256",
          "name": "endorser_id",
          "type": "uint256"
        },
        {
          "internalType": "string",
          "name": "date",
          "type": "string"
        },
        {
          "internalType": "string",
          "name": "comment",
          "type": "string"
        }
      ],
      "stateMutability": "view",
      "type": "function",
      "constant": true
    },
    {
      "inputs": [
        {
          "internalType": "uint256",
          "name": "",
          "type": "uint256"
        }
      ],
      "name": "experiences",
      "outputs": [
        {
          "internalType": "string",
          "name": "starting_date",
          "type": "string"
        },
        {
          "internalType": "string",
          "name": "ending_date",
          "type": "string"
        },
        {
          "internalType": "string",
          "name": "user_name",
          "type": "string"
        },
        {
          "internalType": "string",
          "name": "role",
          "type": "string"
        },
        {
          "internalType": "bool",
          "name": "currently_working",
          "type": "bool"
        },
        {
          "internalType": "uint256",
          "name": "company_id",
          "type": "uint256"
        },
        {
          "internalType": "bool",
          "name": "is_approved",
          "type": "bool"
        }
      ],
      "stateMutability": "view",
      "type": "function",
      "constant": true
    },
    {
      "inputs": [
        {
          "internalType": "address",
          "name": "",
          "type": "address"
        }
      ],
      "name": "is_company",
      "outputs": [
        {
          "internalType": "bool",
          "name": "",
          "type": "bool"
        }
      ],
      "stateMutability": "view",
      "type": "function",
      "constant": true
    },
    {
      "inputs": [
        {
          "internalType": "uint256",
          "name": "",
          "type": "uint256"
        }
      ],
      "name": "skills",
      "outputs": [
        {
          "internalType": "uint256",
          "name": "id",
          "type": "uint256"
        },
        {
          "internalType": "string",
          "name": "name",
          "type": "string"
        },
        {
          "internalType": "bool",
          "name": "verified",
          "type": "bool"
        }
      ],
      "stateMutability": "view",
      "type": "function",
      "constant": true
    },
    {
      "inputs": [
        {
          "internalType": "string",
          "name": "email",
          "type": "string"
        },
        {
          "internalType": "string",
          "name": "name",
          "type": "string"
        },
        {
          "internalType": "string",
          "name": "password",
          "type": "string"
        },
        {
          "internalType": "string",
          "name": "acc_type",
          "type": "string"
        }
      ],
      "name": "sign_up",
      "outputs": [],
      "stateMutability": "nonpayable",
      "type": "function"
    },
    {
      "inputs": [
        {
          "internalType": "uint256",
          "name": "employee_id",
          "type": "uint256"
        }
      ],
      "name": "approve_manager",
      "outputs": [],
      "stateMutability": "nonpayable",
      "type": "function"
    },
    {
      "inputs": [
        {
          "internalType": "string",
          "name": "email",
          "type": "string"
        },
        {
          "internalType": "string",
          "name": "password",
          "type": "string"
        }
      ],
      "name": "login",
      "outputs": [
        {
          "internalType": "string",
          "name": "",
          "type": "string"
        }
      ],
      "stateMutability": "view",
      "type": "function",
      "constant": true
    },
    {
      "inputs": [
        {
          "internalType": "uint256",
          "name": "user_id",
          "type": "uint256"
        },
        {
          "internalType": "string",
          "name": "url",
          "type": "string"
        },
        {
          "internalType": "string",
          "name": "issue_date",
          "type": "string"
        },
        {
          "internalType": "string",
          "name": "valid_till",
          "type": "string"
        },
        {
          "internalType": "string",
          "name": "name",
          "type": "string"
        },
        {
          "internalType": "string",
          "name": "issuer",
          "type": "string"
        },
        {
          "internalType": "uint256",
          "name": "linked_skill_id",
          "type": "uint256"
        }
      ],
      "name": "add_certification",
      "outputs": [],
      "stateMutability": "nonpayable",
      "type": "function"
    },
    {
      "inputs": [
        {
          "internalType": "uint256",
          "name": "userid",
          "type": "uint256"
        },
        {
          "internalType": "string",
          "name": "skill_name",
          "type": "string"
        }
      ],
      "name": "add_skill",
      "outputs": [],
      "stateMutability": "nonpayable",
      "type": "function"
    },
    {
      "inputs": [
        {
          "internalType": "uint256",
          "name": "user_id",
          "type": "uint256"
        },
        {
          "internalType": "uint256",
          "name": "skill_id",
          "type": "uint256"
        },
        {
          "internalType": "string",
          "name": "endorsing_date",
          "type": "string"
        },
        {
          "internalType": "string",
          "name": "comment",
          "type": "string"
        }
      ],
      "name": "endorse_skill",
      "outputs": [],
      "stateMutability": "nonpayable",
      "type": "function"
    },
    {
      "inputs": [
        {
          "internalType": "uint256",
          "name": "user_id",
          "type": "uint256"
        },
        {
          "internalType": "string",
          "name": "starting_date",
          "type": "string"
        },
        {
          "internalType": "string",
          "name": "ending_date",
          "type": "string"
        },
        {
          "internalType": "string",
          "name": "role",
          "type": "string"
        },
        {
          "internalType": "uint256",
          "name": "company_id",
          "type": "uint256"
        }
      ],
      "name": "add_experience",
      "outputs": [],
      "stateMutability": "nonpayable",
      "type": "function"
    },
    {
      "inputs": [
        {
          "internalType": "uint256",
          "name": "exp_id",
          "type": "uint256"
        },
        {
          "internalType": "uint256",
          "name": "company_id",
          "type": "uint256"
        }
      ],
      "name": "approve_experience",
      "outputs": [],
      "stateMutability": "nonpayable",
      "type": "function"
    },
    {
      "inputs": [
        {
          "internalType": "string",
          "name": "email",
          "type": "string"
        },
        {
          "internalType": "address",
          "name": "new_address",
          "type": "address"
        }
      ],
      "name": "update_wallet_address",
      "outputs": [],
      "stateMutability": "nonpayable",
      "type": "function"
    },
    {
      "inputs": [
        {
          "internalType": "uint256",
          "name": "id",
          "type": "uint256"
        }
      ],
      "name": "skills_of_user",
      "outputs": [
        {
          "internalType": "uint256[]",
          "name": "",
          "type": "uint256[]"
        }
      ],
      "stateMutability": "view",
      "type": "function",
      "constant": true
    },
    {
      "inputs": [
        {
          "internalType": "uint256",
          "name": "id",
          "type": "uint256"
        }
      ],
      "name": "exp_of_user",
      "outputs": [
        {
          "internalType": "uint256[]",
          "name": "",
          "type": "uint256[]"
        }
      ],
      "stateMutability": "view",
      "type": "function",
      "constant": true
    },
    {
      "inputs": [
        {
          "internalType": "uint256",
          "name": "id",
          "type": "uint256"
        }
      ],
      "name": "curr_emp_of_company",
      "outputs": [
        {
          "internalType": "uint256[]",
          "name": "",
          "type": "uint256[]"
        }
      ],
      "stateMutability": "view",
      "type": "function",
      "constant": true
    },
    {
      "inputs": [
        {
          "internalType": "uint256",
          "name": "id",
          "type": "uint256"
        }
      ],
      "name": "prev_emp_of_company",
      "outputs": [
        {
          "internalType": "uint256[]",
          "name": "",
          "type": "uint256[]"
        }
      ],
      "stateMutability": "view",
      "type": "function",
      "constant": true
    },
    {
      "inputs": [
        {
          "internalType": "uint256",
          "name": "id",
          "type": "uint256"
        }
      ],
      "name": "requested_emp_of_company",
      "outputs": [
        {
          "internalType": "uint256[]",
          "name": "",
          "type": "uint256[]"
        }
      ],
      "stateMutability": "view",
      "type": "function",
      "constant": true
    },
    {
      "inputs": [
        {
          "internalType": "uint256",
          "name": "id",
          "type": "uint256"
        }
      ],
      "name": "cert_of_skill",
      "outputs": [
        {
          "internalType": "uint256[]",
          "name": "",
          "type": "uint256[]"
        }
      ],
      "stateMutability": "view",
      "type": "function",
      "constant": true
    },
    {
      "inputs": [
        {
          "internalType": "uint256",
          "name": "id",
          "type": "uint256"
        }
      ],
      "name": "endrs_of_skill",
      "outputs": [
        {
          "internalType": "uint256[]",
          "name": "",
          "type": "uint256[]"
        }
      ],
      "stateMutability": "view",
      "type": "function",
      "constant": true
    }
  ],
  "bytecode": "0x60806040523480156200001157600080fd5b5060006001808160018154018082558091505003906000526020600020906008020190506040518060400160405280600581526020017f64756d6d7900000000000000000000000000000000000000000000000000000081525081600201908051906020019062000084929190620001f1565b50338160040160006101000a81548173ffffffffffffffffffffffffffffffffffffffff021916908373ffffffffffffffffffffffffffffffffffffffff16021790555060008160000181905550600067ffffffffffffffff81111562000114577f4e487b7100000000000000000000000000000000000000000000000000000000600052604160045260246000fd5b604051908082528060200260200182016040528015620001435781602001602082028036833780820191505090505b508160060190805190602001906200015d92919062000282565b50600067ffffffffffffffff811115620001a0577f4e487b7100000000000000000000000000000000000000000000000000000000600052604160045260246000fd5b604051908082528060200260200182016040528015620001cf5781602001602082028036833780820191505090505b50816007019080519060200190620001e992919062000282565b505062000358565b828054620001ff90620002f3565b90600052602060002090601f0160209004810192826200022357600085556200026f565b82601f106200023e57805160ff19168380011785556200026f565b828001600101855582156200026f579182015b828111156200026e57825182559160200191906001019062000251565b5b5090506200027e9190620002d4565b5090565b828054828255906000526020600020908101928215620002c1579160200282015b82811115620002c0578251825591602001919060010190620002a3565b5b509050620002d09190620002d4565b5090565b5b80821115620002ef576000816000905550600101620002d5565b5090565b600060028204905060018216806200030c57607f821691505b6020821081141562000323576200032262000329565b5b50919050565b7f4e487b7100000000000000000000000000000000000000000000000000000000600052602260045260246000fd5b61482880620003686000396000f3fe608060405234801561001057600080fd5b506004361061018e5760003560e01c806358467dbc116100de578063b1e116c311610097578063dd7a753811610071578063dd7a753814610554578063edf85a8614610584578063f7a03f3b146105a0578063f86b20cb146105d05761018e565b8063b1e116c3146104bc578063ce77c9c9146104ee578063cf3e7c7c1461051e5761018e565b806358467dbc146103c45780635a2ec07c146103f45780637a52f30e14610410578063852e65de14610440578063884ffe32146104705780639e70be411461048c5761018e565b8063331f67531161014b5780633c0359a4116101255780633c0359a4146102f65780634739326b1461032b5780634845a2951461036257806350d15fbe146103925761018e565b8063331f67531461028e57806336d77eaa146102be5780633859e95d146102da5761018e565b8063067709dd146101935780630c1bc591146101af578063110ce79c146101cb57806317ae5f81146101fb5780632813d19d1461022b5780632cc8e2741461025e575b600080fd5b6101ad60048036038101906101a89190613a4c565b6105ec565b005b6101c960048036038101906101c49190613980565b610764565b005b6101e560048036038101906101e091906138ff565b6109cc565b6040516101f29190613eef565b60405180910390f35b610215600480360381019061021091906138ff565b610a6f565b6040516102229190613eef565b60405180910390f35b610245600480360381019061024091906138ff565b610b12565b60405161025594939291906141fb565b60405180910390f35b610278600480360381019061027391906138ff565b610c82565b6040516102859190613eef565b60405180910390f35b6102a860048036038101906102a3919061384e565b610d25565b6040516102b59190613f2c565b60405180910390f35b6102d860048036038101906102d391906138ff565b610ddb565b005b6102f460048036038101906102ef9190613779565b611032565b005b610310600480360381019061030b91906138ff565b611661565b60405161032296959493929190613fd9565b60405180910390f35b610345600480360381019061034091906138ff565b611955565b60405161035998979695949392919061424e565b60405180910390f35b61037c6004803603810190610377919061384e565b611af7565b6040516103899190613ed4565b60405180910390f35b6103ac60048036038101906103a791906138ff565b611b40565b6040516103bb93929190614178565b60405180910390f35b6103de60048036038101906103d9919061388f565b611c0f565b6040516103eb9190613f2c565b60405180910390f35b61040e60048036038101906104099190613928565b611ebb565b005b61042a600480360381019061042591906136f8565b612110565b604051610437919061415d565b60405180910390f35b61045a600480360381019061045591906138ff565b612128565b6040516104679190613eef565b60405180910390f35b61048a60048036038101906104859190613721565b6121cb565b005b6104a660048036038101906104a191906138ff565b6123ab565b6040516104b39190613eef565b60405180910390f35b6104d660048036038101906104d191906138ff565b61244e565b6040516104e5939291906141b6565b60405180910390f35b610508600480360381019061050391906138ff565b612598565b6040516105159190613eef565b60405180910390f35b610538600480360381019061053391906138ff565b61263b565b60405161054b9796959493929190613f4e565b60405180910390f35b61056e600480360381019061056991906136f8565b6128c7565b60405161057b9190613f11565b60405180910390f35b61059e60048036038101906105999190613b74565b6128e7565b005b6105ba60048036038101906105b591906138ff565b61303a565b6040516105c79190613eef565b60405180910390f35b6105ea60048036038101906105e59190613bb0565b6130dd565b005b8a600760003373ffffffffffffffffffffffffffffffffffffffff1673ffffffffffffffffffffffffffffffffffffffff16815260200190815260200160002054811461063857600080fd5b6000600260018160018154018082558091505003906000526020600020906006020190508b816000019080519060200190610674929190613419565b508a8a82600101919061068892919061349f565b50888882600201919061069c92919061349f565b5086868260030191906106b092919061349f565b5060016002805490506106c39190614390565b816004018190555084848260050191906106de92919061349f565b5060048381548110610719577f4e487b7100000000000000000000000000000000000000000000000000000000600052603260045260246000fd5b90600052602060002090600502016003018160040154908060018154018082558091505060019003906000526020600020016000909190919091505550505050505050505050505050565b87600760003373ffffffffffffffffffffffffffffffffffffffff1673ffffffffffffffffffffffffffffffffffffffff1681526020019081526020016000205481146107b057600080fd5b60006005600181600181540180825580915050039060005260206000209060070201905082816005018190555060008160040160006101000a81548160ff02191690831515021790555060008160060160006101000a81548160ff021916908315150217905550888882600001919061082a92919061349f565b50868682600101919061083e92919061349f565b50848482600301919061085292919061349f565b5060018a8154811061088d577f4e487b7100000000000000000000000000000000000000000000000000000000600052603260045260246000fd5b9060005260206000209060080201600201816002019080546108ae9061444e565b6108b9929190613525565b5060018a815481106108f4577f4e487b7100000000000000000000000000000000000000000000000000000000600052603260045260246000fd5b906000526020600020906008020160070160016005805490506109179190614390565b908060018154018082558091505060019003906000526020600020016000909190919091505560008381548110610977577f4e487b7100000000000000000000000000000000000000000000000000000000600052603260045260246000fd5b9060005260206000209060070201600601600160058054905061099a9190614390565b908060018154018082558091505060019003906000526020600020016000909190919091505550505050505050505050565b606060048281548110610a08577f4e487b7100000000000000000000000000000000000000000000000000000000600052603260045260246000fd5b9060005260206000209060050201600401805480602002602001604051908101604052809291908181526020018280548015610a6357602002820191906000526020600020905b815481526020019060010190808311610a4f575b50505050509050919050565b606060008281548110610aab577f4e487b7100000000000000000000000000000000000000000000000000000000600052603260045260246000fd5b9060005260206000209060070201600601805480602002602001604051908101604052809291908181526020018280548015610b0657602002820191906000526020600020905b815481526020019060010190808311610af2575b50505050509050919050565b60008181548110610b2257600080fd5b9060005260206000209060070201600091509050806000015490806001018054610b4b9061444e565b80601f0160208091040260200160405190810160405280929190818152602001828054610b779061444e565b8015610bc45780601f10610b9957610100808354040283529160200191610bc4565b820191906000526020600020905b815481529060010190602001808311610ba757829003601f168201915b505050505090806002018054610bd99061444e565b80601f0160208091040260200160405190810160405280929190818152602001828054610c059061444e565b8015610c525780601f10610c2757610100808354040283529160200191610c52565b820191906000526020600020905b815481529060010190602001808311610c3557829003601f168201915b5050505050908060030160009054906101000a900473ffffffffffffffffffffffffffffffffffffffff16905084565b606060008281548110610cbe577f4e487b7100000000000000000000000000000000000000000000000000000000600052603260045260246000fd5b9060005260206000209060070201600501805480602002602001604051908101604052809291908181526020018280548015610d1957602002820191906000526020600020905b815481526020019060010190808311610d05575b50505050509050919050565b6009818051602081018201805184825260208301602085012081835280955050505050506000915090508054610d5a9061444e565b80601f0160208091040260200160405190810160405280929190818152602001828054610d869061444e565b8015610dd35780601f10610da857610100808354040283529160200191610dd3565b820191906000526020600020905b815481529060010190602001808311610db657829003601f168201915b505050505081565b600860003373ffffffffffffffffffffffffffffffffffffffff1673ffffffffffffffffffffffffffffffffffffffff16815260200190815260200160002060009054906101000a900460ff16610e67576040517f08c379a0000000000000000000000000000000000000000000000000000000008152600401610e5e9061407d565b60405180910390fd5b600760003373ffffffffffffffffffffffffffffffffffffffff1673ffffffffffffffffffffffffffffffffffffffff1681526020019081526020016000205460018281548110610ee1577f4e487b7100000000000000000000000000000000000000000000000000000000600052603260045260246000fd5b90600052602060002090600802016001015414610f33576040517f08c379a0000000000000000000000000000000000000000000000000000000008152600401610f2a906140bd565b60405180910390fd5b60018181548110610f6d577f4e487b7100000000000000000000000000000000000000000000000000000000600052603260045260246000fd5b906000526020600020906008020160040160159054906101000a900460ff1615610fcc576040517f08c379a0000000000000000000000000000000000000000000000000000000008152600401610fc39061413d565b60405180910390fd5b6001808281548110611007577f4e487b7100000000000000000000000000000000000000000000000000000000600052603260045260246000fd5b906000526020600020906008020160040160156101000a81548160ff02191690831515021790555050565b600073ffffffffffffffffffffffffffffffffffffffff166006898960405161105c929190613ea4565b908152602001604051809103902060009054906101000a900473ffffffffffffffffffffffffffffffffffffffff1673ffffffffffffffffffffffffffffffffffffffff16146110e1576040517f08c379a00000000000000000000000000000000000000000000000000000000081526004016110d89061411d565b60405180910390fd5b33600689896040516110f4929190613ea4565b908152602001604051809103902060006101000a81548173ffffffffffffffffffffffffffffffffffffffff021916908373ffffffffffffffffffffffffffffffffffffffff1602179055506111c382828080601f016020809104026020016040519081016040528093929190818152602001838380828437600081840152601f19601f820116905080830192505050505050506040518060400160405280600481526020017f75736572000000000000000000000000000000000000000000000000000000008152506133dd565b156113fd57600060018081600181540180825580915050039060005260206000209060080201905086868260020191906111fe92919061349f565b50848460098b8b604051611213929190613ea4565b9081526020016040518091039020919061122e92919061349f565b50848482600301919061124292919061349f565b50600180805490506112549190614390565b8160000181905550338160040160006101000a81548173ffffffffffffffffffffffffffffffffffffffff021916908373ffffffffffffffffffffffffffffffffffffffff1602179055508060000154600760003373ffffffffffffffffffffffffffffffffffffffff1673ffffffffffffffffffffffffffffffffffffffff16815260200190815260200160002081905550600067ffffffffffffffff811115611328577f4e487b7100000000000000000000000000000000000000000000000000000000600052604160045260246000fd5b6040519080825280602002602001820160405280156113565781602001602082028036833780820191505090505b5081600601908051906020019061136e9291906135b2565b50600067ffffffffffffffff8111156113b0577f4e487b7100000000000000000000000000000000000000000000000000000000600052604160045260246000fd5b6040519080825280602002602001820160405280156113de5781602001602082028036833780820191505090505b508160070190805190602001906113f69291906135b2565b5050611657565b6000806001816001815401808255809150500390600052602060002090600702019050868682600101919061143392919061349f565b50848482600201919061144792919061349f565b50600160008054905061145a9190614390565b8160000181905550338160030160006101000a81548173ffffffffffffffffffffffffffffffffffffffff021916908373ffffffffffffffffffffffffffffffffffffffff160217905550600067ffffffffffffffff8111156114e6577f4e487b7100000000000000000000000000000000000000000000000000000000600052604160045260246000fd5b6040519080825280602002602001820160405280156115145781602001602082028036833780820191505090505b5081600401908051906020019061152c9291906135b2565b50600067ffffffffffffffff81111561156e577f4e487b7100000000000000000000000000000000000000000000000000000000600052604160045260246000fd5b60405190808252806020026020018201604052801561159c5781602001602082028036833780820191505090505b508160050190805190602001906115b49291906135b2565b508060000154600760003373ffffffffffffffffffffffffffffffffffffffff1673ffffffffffffffffffffffffffffffffffffffff168152602001908152602001600020819055506001600860003373ffffffffffffffffffffffffffffffffffffffff1673ffffffffffffffffffffffffffffffffffffffff16815260200190815260200160002060006101000a81548160ff021916908315150217905550505b5050505050505050565b6002818154811061167157600080fd5b90600052602060002090600602016000915090508060000180546116949061444e565b80601f01602080910402602001604051908101604052809291908181526020018280546116c09061444e565b801561170d5780601f106116e25761010080835404028352916020019161170d565b820191906000526020600020905b8154815290600101906020018083116116f057829003601f168201915b5050505050908060010180546117229061444e565b80601f016020809104026020016040519081016040528092919081815260200182805461174e9061444e565b801561179b5780601f106117705761010080835404028352916020019161179b565b820191906000526020600020905b81548152906001019060200180831161177e57829003601f168201915b5050505050908060020180546117b09061444e565b80601f01602080910402602001604051908101604052809291908181526020018280546117dc9061444e565b80156118295780601f106117fe57610100808354040283529160200191611829565b820191906000526020600020905b81548152906001019060200180831161180c57829003601f168201915b50505050509080600301805461183e9061444e565b80601f016020809104026020016040519081016040528092919081815260200182805461186a9061444e565b80156118b75780601f1061188c576101008083540402835291602001916118b7565b820191906000526020600020905b81548152906001019060200180831161189a57829003601f168201915b5050505050908060040154908060050180546118d29061444e565b80601f01602080910402602001604051908101604052809291908181526020018280546118fe9061444e565b801561194b5780601f106119205761010080835404028352916020019161194b565b820191906000526020600020905b81548152906001019060200180831161192e57829003601f168201915b5050505050905086565b6001818154811061196557600080fd5b90600052602060002090600802016000915090508060000154908060010154908060020180546119949061444e565b80601f01602080910402602001604051908101604052809291908181526020018280546119c09061444e565b8015611a0d5780601f106119e257610100808354040283529160200191611a0d565b820191906000526020600020905b8154815290600101906020018083116119f057829003601f168201915b505050505090806003018054611a229061444e565b80601f0160208091040260200160405190810160405280929190818152602001828054611a4e9061444e565b8015611a9b5780601f10611a7057610100808354040283529160200191611a9b565b820191906000526020600020905b815481529060010190602001808311611a7e57829003601f168201915b5050505050908060040160009054906101000a900473ffffffffffffffffffffffffffffffffffffffff16908060040160149054906101000a900460ff16908060040160159054906101000a900460ff16908060050154905088565b6006818051602081018201805184825260208301602085012081835280955050505050506000915054906101000a900473ffffffffffffffffffffffffffffffffffffffff1681565b60048181548110611b5057600080fd5b9060005260206000209060050201600091509050806000015490806001018054611b799061444e565b80601f0160208091040260200160405190810160405280929190818152602001828054611ba59061444e565b8015611bf25780601f10611bc757610100808354040283529160200191611bf2565b820191906000526020600020905b815481529060010190602001808311611bd557829003601f168201915b5050505050908060020160009054906101000a900460ff16905083565b6060600684604051611c219190613ebd565b908152602001604051809103902060009054906101000a900473ffffffffffffffffffffffffffffffffffffffff1673ffffffffffffffffffffffffffffffffffffffff163373ffffffffffffffffffffffffffffffffffffffff1614611cbd576040517f08c379a0000000000000000000000000000000000000000000000000000000008152600401611cb49061409d565b60405180910390fd5b611db183838080601f016020809104026020016040519081016040528093929190818152602001838380828437600081840152601f19601f82011690508083019250505050505050600986604051611d159190613ebd565b90815260200160405180910390208054611d2e9061444e565b80601f0160208091040260200160405190810160405280929190818152602001828054611d5a9061444e565b8015611da75780601f10611d7c57610100808354040283529160200191611da7565b820191906000526020600020905b815481529060010190602001808311611d8a57829003601f168201915b50505050506133dd565b611df0576040517f08c379a0000000000000000000000000000000000000000000000000000000008152600401611de7906140dd565b60405180910390fd5b600860003373ffffffffffffffffffffffffffffffffffffffff1673ffffffffffffffffffffffffffffffffffffffff16815260200190815260200160002060009054906101000a900460ff16611e7c576040518060400160405280600481526020017f7573657200000000000000000000000000000000000000000000000000000000815250611eb3565b6040518060400160405280600781526020017f636f6d70616e79000000000000000000000000000000000000000000000000008152505b509392505050565b82600760003373ffffffffffffffffffffffffffffffffffffffff1673ffffffffffffffffffffffffffffffffffffffff168152602001908152602001600020548114611f0757600080fd5b60006004600181600181540180825580915050039060005260206000209060050201905060018581548110611f65577f4e487b7100000000000000000000000000000000000000000000000000000000600052603260045260246000fd5b90600052602060002090600802016006016001600480549050611f889190614390565b90806001815401808255809150506001900390600052602060002001600090919091909150556001600480549050611fc09190614390565b81600001819055508383826001019190611fdb92919061349f565b5060008160020160006101000a81548160ff021916908315150217905550600067ffffffffffffffff81111561203a577f4e487b7100000000000000000000000000000000000000000000000000000000600052604160045260246000fd5b6040519080825280602002602001820160405280156120685781602001602082028036833780820191505090505b508160030190805190602001906120809291906135b2565b50600067ffffffffffffffff8111156120c2577f4e487b7100000000000000000000000000000000000000000000000000000000600052604160045260246000fd5b6040519080825280602002602001820160405280156120f05781602001602082028036833780820191505090505b508160040190805190602001906121089291906135b2565b505050505050565b60076020528060005260406000206000915090505481565b606060008281548110612164577f4e487b7100000000000000000000000000000000000000000000000000000000600052603260045260246000fd5b90600052602060002090600702016004018054806020026020016040519081016040528092919081815260200182805480156121bf57602002820191906000526020600020905b8154815260200190600101908083116121ab575b50505050509050919050565b3373ffffffffffffffffffffffffffffffffffffffff16600684846040516121f4929190613ea4565b908152602001604051809103902060009054906101000a900473ffffffffffffffffffffffffffffffffffffffff1673ffffffffffffffffffffffffffffffffffffffff1614612279576040517f08c379a0000000000000000000000000000000000000000000000000000000008152600401612270906140fd565b60405180910390fd5b806006848460405161228c929190613ea4565b908152602001604051809103902060006101000a81548173ffffffffffffffffffffffffffffffffffffffff021916908373ffffffffffffffffffffffffffffffffffffffff1602179055506000600760003373ffffffffffffffffffffffffffffffffffffffff1673ffffffffffffffffffffffffffffffffffffffff1681526020019081526020016000205490506000600760003373ffffffffffffffffffffffffffffffffffffffff1673ffffffffffffffffffffffffffffffffffffffff1681526020019081526020016000208190555080600760008473ffffffffffffffffffffffffffffffffffffffff1673ffffffffffffffffffffffffffffffffffffffff1681526020019081526020016000208190555050505050565b6060600182815481106123e7577f4e487b7100000000000000000000000000000000000000000000000000000000600052603260045260246000fd5b906000526020600020906008020160060180548060200260200160405190810160405280929190818152602001828054801561244257602002820191906000526020600020905b81548152602001906001019080831161242e575b50505050509050919050565b6003818154811061245e57600080fd5b90600052602060002090600302016000915090508060000154908060010180546124879061444e565b80601f01602080910402602001604051908101604052809291908181526020018280546124b39061444e565b80156125005780601f106124d557610100808354040283529160200191612500565b820191906000526020600020905b8154815290600101906020018083116124e357829003601f168201915b5050505050908060020180546125159061444e565b80601f01602080910402602001604051908101604052809291908181526020018280546125419061444e565b801561258e5780601f106125635761010080835404028352916020019161258e565b820191906000526020600020905b81548152906001019060200180831161257157829003601f168201915b5050505050905083565b6060600182815481106125d4577f4e487b7100000000000000000000000000000000000000000000000000000000600052603260045260246000fd5b906000526020600020906008020160070180548060200260200160405190810160405280929190818152602001828054801561262f57602002820191906000526020600020905b81548152602001906001019080831161261b575b50505050509050919050565b6005818154811061264b57600080fd5b906000526020600020906007020160009150905080600001805461266e9061444e565b80601f016020809104026020016040519081016040528092919081815260200182805461269a9061444e565b80156126e75780601f106126bc576101008083540402835291602001916126e7565b820191906000526020600020905b8154815290600101906020018083116126ca57829003601f168201915b5050505050908060010180546126fc9061444e565b80601f01602080910402602001604051908101604052809291908181526020018280546127289061444e565b80156127755780601f1061274a57610100808354040283529160200191612775565b820191906000526020600020905b81548152906001019060200180831161275857829003601f168201915b50505050509080600201805461278a9061444e565b80601f01602080910402602001604051908101604052809291908181526020018280546127b69061444e565b80156128035780601f106127d857610100808354040283529160200191612803565b820191906000526020600020905b8154815290600101906020018083116127e657829003601f168201915b5050505050908060030180546128189061444e565b80601f01602080910402602001604051908101604052809291908181526020018280546128449061444e565b80156128915780601f1061286657610100808354040283529160200191612891565b820191906000526020600020905b81548152906001019060200180831161287457829003601f168201915b5050505050908060040160009054906101000a900460ff16908060050154908060060160009054906101000a900460ff16905087565b60086020528060005260406000206000915054906101000a900460ff1681565b600860003373ffffffffffffffffffffffffffffffffffffffff1673ffffffffffffffffffffffffffffffffffffffff16815260200190815260200160002060009054906101000a900460ff168015612a14575060058281548110612975577f4e487b7100000000000000000000000000000000000000000000000000000000600052603260045260246000fd5b9060005260206000209060070201600501546000600760003373ffffffffffffffffffffffffffffffffffffffff1673ffffffffffffffffffffffffffffffffffffffff1681526020019081526020016000205481548110612a00577f4e487b7100000000000000000000000000000000000000000000000000000000600052603260045260246000fd5b906000526020600020906007020160000154145b80612b9357506001600760003373ffffffffffffffffffffffffffffffffffffffff1673ffffffffffffffffffffffffffffffffffffffff1681526020019081526020016000205481548110612a93577f4e487b7100000000000000000000000000000000000000000000000000000000600052603260045260246000fd5b906000526020600020906008020160040160159054906101000a900460ff168015612b92575060058281548110612af3577f4e487b7100000000000000000000000000000000000000000000000000000000600052603260045260246000fd5b9060005260206000209060070201600501546001600760003373ffffffffffffffffffffffffffffffffffffffff1673ffffffffffffffffffffffffffffffffffffffff1681526020019081526020016000205481548110612b7e577f4e487b7100000000000000000000000000000000000000000000000000000000600052603260045260246000fd5b906000526020600020906008020160010154145b5b612bd2576040517f08c379a0000000000000000000000000000000000000000000000000000000008152600401612bc99061405d565b60405180910390fd5b6000600160058481548110612c10577f4e487b7100000000000000000000000000000000000000000000000000000000600052603260045260246000fd5b906000526020600020906007020160060160006101000a81548160ff021916908315150217905550600090505b60008281548110612c77577f4e487b7100000000000000000000000000000000000000000000000000000000600052603260045260246000fd5b906000526020600020906007020160060180549050811015612dd2578260008381548110612cce577f4e487b7100000000000000000000000000000000000000000000000000000000600052603260045260246000fd5b90600052602060002090600702016006018281548110612d17577f4e487b7100000000000000000000000000000000000000000000000000000000600052603260045260246000fd5b90600052602060002001541415612dbf576000808381548110612d63577f4e487b7100000000000000000000000000000000000000000000000000000000600052603260045260246000fd5b90600052602060002090600702016006018281548110612dac577f4e487b7100000000000000000000000000000000000000000000000000000000600052603260045260246000fd5b9060005260206000200181905550612dd2565b8080612dca906144b1565b915050612c3d565b600090505b60008281548110612e11577f4e487b7100000000000000000000000000000000000000000000000000000000600052603260045260246000fd5b906000526020600020906007020160040180549050811015612f6c576000808381548110612e68577f4e487b7100000000000000000000000000000000000000000000000000000000600052603260045260246000fd5b90600052602060002090600702016004018281548110612eb1577f4e487b7100000000000000000000000000000000000000000000000000000000600052603260045260246000fd5b90600052602060002001541415612f59578260008381548110612efd577f4e487b7100000000000000000000000000000000000000000000000000000000600052603260045260246000fd5b90600052602060002090600702016006018281548110612f46577f4e487b7100000000000000000000000000000000000000000000000000000000600052603260045260246000fd5b9060005260206000200181905550612f6c565b8080612f64906144b1565b915050612dd7565b60008281548110612fa6577f4e487b7100000000000000000000000000000000000000000000000000000000600052603260045260246000fd5b9060005260206000209060070201600401805490508114156130355760008281548110612ffc577f4e487b7100000000000000000000000000000000000000000000000000000000600052603260045260246000fd5b90600052602060002090600702016004018390806001815401808255809150506001900390600052602060002001600090919091909150555b505050565b606060048281548110613076577f4e487b7100000000000000000000000000000000000000000000000000000000600052603260045260246000fd5b90600052602060002090600502016003018054806020026020016040519081016040528092919081815260200182805480156130d157602002820191906000526020600020905b8154815260200190600101908083116130bd575b50505050509050919050565b600060036001816001815401808255809150500390600052602060002090600302019050600760003373ffffffffffffffffffffffffffffffffffffffff1673ffffffffffffffffffffffffffffffffffffffff168152602001908152602001600020548160000181905550828282600201919061315c92919061349f565b50848482600101919061317092919061349f565b50600486815481106131ab577f4e487b7100000000000000000000000000000000000000000000000000000000600052603260045260246000fd5b906000526020600020906005020160040160016003805490506131ce9190614390565b90806001815401808255809150506001900390600052602060002001600090919091909150556001600760003373ffffffffffffffffffffffffffffffffffffffff1673ffffffffffffffffffffffffffffffffffffffff168152602001908152602001600020548154811061326d577f4e487b7100000000000000000000000000000000000000000000000000000000600052603260045260246000fd5b906000526020600020906008020160040160159054906101000a900460ff16156133d457600187815481106132cb577f4e487b7100000000000000000000000000000000000000000000000000000000600052603260045260246000fd5b9060005260206000209060080201600101546001600760003373ffffffffffffffffffffffffffffffffffffffff1673ffffffffffffffffffffffffffffffffffffffff1681526020019081526020016000205481548110613356577f4e487b7100000000000000000000000000000000000000000000000000000000600052603260045260246000fd5b90600052602060002090600802016001015414156133d3576001600487815481106133aa577f4e487b7100000000000000000000000000000000000000000000000000000000600052603260045260246000fd5b906000526020600020906005020160020160006101000a81548160ff0219169083151502179055505b5b50505050505050565b60006133e983836133f1565b905092915050565b600081518351148015613411575081805190602001208380519060200120145b905092915050565b8280546134259061444e565b90600052602060002090601f016020900481019282613447576000855561348e565b82601f1061346057805160ff191683800117855561348e565b8280016001018555821561348e579182015b8281111561348d578251825591602001919060010190613472565b5b50905061349b91906135ff565b5090565b8280546134ab9061444e565b90600052602060002090601f0160209004810192826134cd5760008555613514565b82601f106134e657803560ff1916838001178555613514565b82800160010185558215613514579182015b828111156135135782358255916020019190600101906134f8565b5b50905061352191906135ff565b5090565b8280546135319061444e565b90600052602060002090601f01602090048101928261355357600085556135a1565b82601f1061356457805485556135a1565b828001600101855582156135a157600052602060002091601f016020900482015b828111156135a0578254825591600101919060010190613585565b5b5090506135ae91906135ff565b5090565b8280548282559060005260206000209081019282156135ee579160200282015b828111156135ed5782518255916020019190600101906135d2565b5b5090506135fb91906135ff565b5090565b5b80821115613618576000816000905550600101613600565b5090565b600061362f61362a846142ff565b6142da565b90508281526020810184848401111561364757600080fd5b61365284828561440c565b509392505050565b600081359050613669816147c4565b92915050565b60008083601f84011261368157600080fd5b8235905067ffffffffffffffff81111561369a57600080fd5b6020830191508360018202830111156136b257600080fd5b9250929050565b600082601f8301126136ca57600080fd5b81356136da84826020860161361c565b91505092915050565b6000813590506136f2816147db565b92915050565b60006020828403121561370a57600080fd5b60006137188482850161365a565b91505092915050565b60008060006040848603121561373657600080fd5b600084013567ffffffffffffffff81111561375057600080fd5b61375c8682870161366f565b9350935050602061376f8682870161365a565b9150509250925092565b6000806000806000806000806080898b03121561379557600080fd5b600089013567ffffffffffffffff8111156137af57600080fd5b6137bb8b828c0161366f565b9850985050602089013567ffffffffffffffff8111156137da57600080fd5b6137e68b828c0161366f565b9650965050604089013567ffffffffffffffff81111561380557600080fd5b6138118b828c0161366f565b9450945050606089013567ffffffffffffffff81111561383057600080fd5b61383c8b828c0161366f565b92509250509295985092959890939650565b60006020828403121561386057600080fd5b600082013567ffffffffffffffff81111561387a57600080fd5b613886848285016136b9565b91505092915050565b6000806000604084860312156138a457600080fd5b600084013567ffffffffffffffff8111156138be57600080fd5b6138ca868287016136b9565b935050602084013567ffffffffffffffff8111156138e757600080fd5b6138f38682870161366f565b92509250509250925092565b60006020828403121561391157600080fd5b600061391f848285016136e3565b91505092915050565b60008060006040848603121561393d57600080fd5b600061394b868287016136e3565b935050602084013567ffffffffffffffff81111561396857600080fd5b6139748682870161366f565b92509250509250925092565b60008060008060008060008060a0898b03121561399c57600080fd5b60006139aa8b828c016136e3565b985050602089013567ffffffffffffffff8111156139c757600080fd5b6139d38b828c0161366f565b9750975050604089013567ffffffffffffffff8111156139f257600080fd5b6139fe8b828c0161366f565b9550955050606089013567ffffffffffffffff811115613a1d57600080fd5b613a298b828c0161366f565b93509350506080613a3c8b828c016136e3565b9150509295985092959890939650565b600080600080600080600080600080600060e08c8e031215613a6d57600080fd5b6000613a7b8e828f016136e3565b9b505060208c013567ffffffffffffffff811115613a9857600080fd5b613aa48e828f016136b9565b9a505060408c013567ffffffffffffffff811115613ac157600080fd5b613acd8e828f0161366f565b995099505060608c013567ffffffffffffffff811115613aec57600080fd5b613af88e828f0161366f565b975097505060808c013567ffffffffffffffff811115613b1757600080fd5b613b238e828f0161366f565b955095505060a08c013567ffffffffffffffff811115613b4257600080fd5b613b4e8e828f0161366f565b935093505060c0613b618e828f016136e3565b9150509295989b509295989b9093969950565b60008060408385031215613b8757600080fd5b6000613b95858286016136e3565b9250506020613ba6858286016136e3565b9150509250929050565b60008060008060008060808789031215613bc957600080fd5b6000613bd789828a016136e3565b9650506020613be889828a016136e3565b955050604087013567ffffffffffffffff811115613c0557600080fd5b613c1189828a0161366f565b9450945050606087013567ffffffffffffffff811115613c3057600080fd5b613c3c89828a0161366f565b92509250509295509295509295565b6000613c578383613e86565b60208301905092915050565b613c6c816143c4565b82525050565b6000613c7d82614340565b613c878185614363565b9350613c9283614330565b8060005b83811015613cc3578151613caa8882613c4b565b9750613cb583614356565b925050600181019050613c96565b5085935050505092915050565b613cd9816143d6565b82525050565b6000613ceb8385614385565b9350613cf883858461440c565b82840190509392505050565b6000613d0f8261434b565b613d198185614374565b9350613d2981856020860161441b565b613d3281614587565b840191505092915050565b6000613d488261434b565b613d528185614385565b9350613d6281856020860161441b565b80840191505092915050565b6000613d7b605283614374565b9150613d8682614598565b606082019050919050565b6000613d9e602383614374565b9150613da98261460d565b604082019050919050565b6000613dc1603383614374565b9150613dcc8261465c565b604082019050919050565b6000613de4602383614374565b9150613def826146ab565b604082019050919050565b6000613e07601983614374565b9150613e12826146fa565b602082019050919050565b6000613e2a603483614374565b9150613e3582614723565b604082019050919050565b6000613e4d601b83614374565b9150613e5882614772565b602082019050919050565b6000613e70602083614374565b9150613e7b8261479b565b602082019050919050565b613e8f81614402565b82525050565b613e9e81614402565b82525050565b6000613eb1828486613cdf565b91508190509392505050565b6000613ec98284613d3d565b915081905092915050565b6000602082019050613ee96000830184613c63565b92915050565b60006020820190508181036000830152613f098184613c72565b905092915050565b6000602082019050613f266000830184613cd0565b92915050565b60006020820190508181036000830152613f468184613d04565b905092915050565b600060e0820190508181036000830152613f68818a613d04565b90508181036020830152613f7c8189613d04565b90508181036040830152613f908188613d04565b90508181036060830152613fa48187613d04565b9050613fb36080830186613cd0565b613fc060a0830185613e95565b613fcd60c0830184613cd0565b98975050505050505050565b600060c0820190508181036000830152613ff38189613d04565b905081810360208301526140078188613d04565b9050818103604083015261401b8187613d04565b9050818103606083015261402f8186613d04565b905061403e6080830185613e95565b81810360a08301526140508184613d04565b9050979650505050505050565b6000602082019050818103600083015261407681613d6e565b9050919050565b6000602082019050818103600083015261409681613d91565b9050919050565b600060208201905081810360008301526140b681613db4565b9050919050565b600060208201905081810360008301526140d681613dd7565b9050919050565b600060208201905081810360008301526140f681613dfa565b9050919050565b6000602082019050818103600083015261411681613e1d565b9050919050565b6000602082019050818103600083015261413681613e40565b9050919050565b6000602082019050818103600083015261415681613e63565b9050919050565b60006020820190506141726000830184613e95565b92915050565b600060608201905061418d6000830186613e95565b818103602083015261419f8185613d04565b90506141ae6040830184613cd0565b949350505050565b60006060820190506141cb6000830186613e95565b81810360208301526141dd8185613d04565b905081810360408301526141f18184613d04565b9050949350505050565b60006080820190506142106000830187613e95565b81810360208301526142228186613d04565b905081810360408301526142368185613d04565b90506142456060830184613c63565b95945050505050565b600061010082019050614264600083018b613e95565b614271602083018a613e95565b81810360408301526142838189613d04565b905081810360608301526142978188613d04565b90506142a66080830187613c63565b6142b360a0830186613cd0565b6142c060c0830185613cd0565b6142cd60e0830184613e95565b9998505050505050505050565b60006142e46142f5565b90506142f08282614480565b919050565b6000604051905090565b600067ffffffffffffffff82111561431a57614319614558565b5b61432382614587565b9050602081019050919050565b6000819050602082019050919050565b600081519050919050565b600081519050919050565b6000602082019050919050565b600082825260208201905092915050565b600082825260208201905092915050565b600081905092915050565b600061439b82614402565b91506143a683614402565b9250828210156143b9576143b86144fa565b5b828203905092915050565b60006143cf826143e2565b9050919050565b60008115159050919050565b600073ffffffffffffffffffffffffffffffffffffffff82169050919050565b6000819050919050565b82818337600083830152505050565b60005b8381101561443957808201518184015260208101905061441e565b83811115614448576000848401525b50505050565b6000600282049050600182168061446657607f821691505b6020821081141561447a57614479614529565b5b50919050565b61448982614587565b810181811067ffffffffffffffff821117156144a8576144a7614558565b5b80604052505050565b60006144bc82614402565b91507fffffffffffffffffffffffffffffffffffffffffffffffffffffffffffffffff8214156144ef576144ee6144fa565b5b600182019050919050565b7f4e487b7100000000000000000000000000000000000000000000000000000000600052601160045260246000fd5b7f4e487b7100000000000000000000000000000000000000000000000000000000600052602260045260246000fd5b7f4e487b7100000000000000000000000000000000000000000000000000000000600052604160045260246000fd5b6000601f19601f8301169050919050565b7f6572726f723a20617070726f7665722073686f756c642062652074686520636f60008201527f6d70616e79206163636f756e74206f722061206d616e61676572206f6620746860208201527f6520726571756972656420636f6d70616e790000000000000000000000000000604082015250565b7f6572726f723a2073656e646572206e6f74206120636f6d70616e79206163636f60008201527f756e740000000000000000000000000000000000000000000000000000000000602082015250565b7f6572726f723a20696e636f72726563742077616c6c657420616464726573732060008201527f7573656420666f72207369676e696e6720696e00000000000000000000000000602082015250565b7f6572726f723a2075736572206e6f74206f66207468652073616d6520636f6d7060008201527f616e790000000000000000000000000000000000000000000000000000000000602082015250565b7f6572726f723a20696e636f72726563742070617373776f726400000000000000600082015250565b7f6572726f723a2066756e6374696f6e2063616c6c65642066726f6d20696e636f60008201527f72726563742077616c6c65742061646472657373000000000000000000000000602082015250565b7f6572726f723a207573657220616c726561647920657869737473210000000000600082015250565b7f6572726f723a207573657220697320616c72656164792061206d616e61676572600082015250565b6147cd816143c4565b81146147d857600080fd5b50565b6147e481614402565b81146147ef57600080fd5b5056fea2646970667358221220b15da45096dc5405121dd9bc54c19e4d69d9690d339267032f2953045023bf6c64736f6c63430008010033",
  "immutableReferences": {},
  "source": "// SPDX-License-Identifier: MIT\npragma solidity ^0.8.1;\n\n\ncontract Decentraskill {\n    company[] public companies;\n    user[] public employees;\n    certificate[] public certifications;\n    endorsment[] public endorsments;\n    skill[] public skills;\n    experience[] public experiences;\n\n    mapping(string => address) public email_to_address;\n    mapping(address => uint256) public address_to_id;\n    mapping(address => bool) public is_company;\n    mapping(string => string ) public email_to_password;\n\n    modifier verifiedUser(uint256 user_id) {\n        require(user_id == address_to_id[msg.sender]);\n        _;\n    }\n\n    struct company {\n        uint256 id;\n        string name;\n        string password;\n        address wallet_address;\n        uint256[] current_employees;\n        uint256[] previous_employees;\n        uint256[] requested_employees;\n    }\n\n    struct certificate {\n        string url;\n        string issue_date;\n        string valid_till;\n        string name;\n        uint256 id;\n        string issuer;\n    }\n\n    struct endorsment {\n        uint256 endorser_id;\n        string date;\n        string comment;\n    }\n\n    struct experience {\n        string starting_date;\n        string ending_date;\n        string user_name;\n        string role;\n        bool currently_working;\n        uint256 company_id;\n        bool is_approved;\n    }\n\n    struct skill {\n        uint256 id;\n        string name;\n        bool verified;\n        uint256[] skill_certifications;\n        uint256[] skill_endorsements;\n    }\n\n    struct user {\n        uint256 id;\n        uint256 company_id;\n        string name;\n        string password;\n        address wallet_address;\n        bool is_employed;\n        bool is_manager;\n        uint256 num_skill;\n        uint256[] user_skills;\n        uint256[] user_work_experience;\n    }\n\n    constructor() {\n        user storage dummy_user = employees.push();\n        dummy_user.name = \"dummy\";\n        dummy_user.wallet_address = msg.sender;\n        dummy_user.id = 0;\n        dummy_user.user_skills = new uint256[](0);\n        dummy_user.user_work_experience = new uint256[](0);\n    }\n\n    function memcmp(bytes memory a, bytes memory b)\n        internal\n        pure\n        returns (bool)\n    {\n        return (a.length == b.length) && (keccak256(a) == keccak256(b));\n    }\n\n    function strcmp(string memory a, string memory b)\n        internal\n        pure\n        returns (bool)\n    {\n        return memcmp(bytes(a), bytes(b));\n    }\n\n    function sign_up(\n        string calldata email,\n        string calldata name,\n        string calldata password,\n        string calldata acc_type\n    ) public {\n        require(\n            email_to_address[email] == address(0),\n            \"error: user already exists!\"\n        );\n        email_to_address[email] = msg.sender;\n\n        if (strcmp(acc_type, \"user\")) {\n            user storage new_user = employees.push();\n            new_user.name = name;\n\n            email_to_password[email] = password;\n\n            new_user.password = password;\n            new_user.id = employees.length - 1;\n            new_user.wallet_address = msg.sender;\n            address_to_id[msg.sender] = new_user.id;\n            new_user.user_skills = new uint256[](0);\n            new_user.user_work_experience = new uint256[](0);\n        } else {\n            company storage new_company = companies.push();\n            new_company.name = name;\n            new_company.password = password;\n            new_company.id = companies.length - 1;\n            new_company.wallet_address = msg.sender;\n            new_company.current_employees = new uint256[](0);\n            new_company.previous_employees = new uint256[](0);\n            address_to_id[msg.sender] = new_company.id;\n            is_company[msg.sender] = true;\n        }\n    }\n\n    function approve_manager(uint256 employee_id) public {\n        require(is_company[msg.sender], \"error: sender not a company account\");\n        require(\n            employees[employee_id].company_id == address_to_id[msg.sender],\n            \"error: user not of the same company\"\n        );\n        require(\n            !(employees[employee_id].is_manager),\n            \"error: user is already a manager\"\n        );\n        employees[employee_id].is_manager = true;\n    }\n\n    function login(string memory email, string calldata password) public view returns (string memory) {\n        require(\n            msg.sender == email_to_address[email],\n            \"error: incorrect wallet address used for signing in\"\n        );\n        require(strcmp(password, email_to_password[email]), \n            \"error: incorrect password\");\n         (is_company[msg.sender]) ? \"company\" : \"user\";\n    }\n\n    function add_certification(\n        uint256 user_id,\n        string memory url,\n        string calldata issue_date,\n        string calldata valid_till,\n        string calldata name,\n        string calldata issuer,\n        uint256 linked_skill_id\n    ) public verifiedUser(user_id) {\n        certificate storage new_certificate = certifications.push();\n        new_certificate.url = url;\n        new_certificate.issue_date = issue_date;\n        new_certificate.valid_till = valid_till;\n        new_certificate.name = name;\n        new_certificate.id = certifications.length - 1;\n        new_certificate.issuer = issuer;\n        skills[linked_skill_id].skill_certifications.push(new_certificate.id);\n    }\n\n    function add_skill(uint256 userid, string calldata skill_name)\n        public\n        verifiedUser(userid)\n    {\n        skill storage new_skill = skills.push();\n        employees[userid].user_skills.push(skills.length - 1);\n        new_skill.id = skills.length - 1;\n        new_skill.name = skill_name;\n        new_skill.verified = false;\n        new_skill.skill_certifications = new uint256[](0);\n        new_skill.skill_endorsements = new uint256[](0);\n    }\n\n    function endorse_skill(\n        uint256 user_id,\n        uint256 skill_id,\n        string calldata endorsing_date,\n        string calldata comment\n    ) public {\n        endorsment storage new_endorsemnt = endorsments.push();\n        new_endorsemnt.endorser_id = address_to_id[msg.sender];\n        new_endorsemnt.comment = comment;\n        new_endorsemnt.date = endorsing_date;\n        skills[skill_id].skill_endorsements.push(endorsments.length - 1);\n        if (employees[address_to_id[msg.sender]].is_manager) {\n            if (\n                employees[address_to_id[msg.sender]].company_id ==\n                employees[user_id].company_id\n            ) {\n                skills[skill_id].verified = true;\n            }\n        }\n    }\n\n    function add_experience(\n        uint256 user_id,\n        string calldata starting_date,\n        string calldata ending_date,\n        string calldata role,\n        uint256 company_id\n    ) public verifiedUser(user_id) {\n        experience storage new_experience = experiences.push();\n        new_experience.company_id = company_id;\n        new_experience.currently_working = false;\n        new_experience.is_approved = false;\n        new_experience.starting_date = starting_date;\n        new_experience.ending_date = ending_date;\n        new_experience.role = role;\n        new_experience.user_name = employees[user_id].name;\n        employees[user_id].user_work_experience.push(experiences.length - 1);\n        companies[company_id].requested_employees.push(experiences.length - 1);\n    }\n\n    function approve_experience(uint256 exp_id, uint256 company_id) public {\n        require(\n            (is_company[msg.sender] &&\n                companies[address_to_id[msg.sender]].id ==\n                experiences[exp_id].company_id) ||\n                (employees[address_to_id[msg.sender]].is_manager &&\n                    employees[address_to_id[msg.sender]].company_id ==\n                    experiences[exp_id].company_id),\n            \"error: approver should be the company account or a manager of the required company\"\n        );\n        uint256 i;\n        experiences[exp_id].is_approved = true;\n        for (i = 0; i < companies[company_id].requested_employees.length; i++) {\n            if (companies[company_id].requested_employees[i] == exp_id) {\n                companies[company_id].requested_employees[i] = 0;\n                break;\n            }\n        }\n        for (i = 0; i < companies[company_id].current_employees.length; i++) {\n            if (companies[company_id].current_employees[i] == 0) {\n                companies[company_id].requested_employees[i] = exp_id;\n                break;\n            }\n        }\n        if (i == companies[company_id].current_employees.length)\n            companies[company_id].current_employees.push(exp_id);\n    }\n\n    function update_wallet_address(string calldata email, address new_address)\n        public\n    {\n        require(\n            email_to_address[email] == msg.sender,\n            \"error: function called from incorrect wallet address\"\n        );\n        email_to_address[email] = new_address;\n        uint256 id = address_to_id[msg.sender];\n        address_to_id[msg.sender] = 0;\n        address_to_id[new_address] = id;\n    }\n\n    function skills_of_user(uint256 id) public view returns (uint256[] memory) {\n        return employees[id].user_skills;\n    }\n\n    function exp_of_user(uint256 id) public view returns (uint256[] memory) {\n        return employees[id].user_work_experience;\n    }\n\n    function curr_emp_of_company(uint256 id)\n        public\n        view\n        returns (uint256[] memory)\n    {\n        return companies[id].current_employees;\n    }\n\n    function prev_emp_of_company(uint256 id)\n        public\n        view\n        returns (uint256[] memory)\n    {\n        return companies[id].previous_employees;\n    }\n\n    function requested_emp_of_company(uint256 id)\n        public\n        view\n        returns (uint256[] memory)\n    {\n        return companies[id].requested_employees;\n    }\n\n    function cert_of_skill(uint256 id) public view returns (uint256[] memory) {\n        return skills[id].skill_certifications;\n    }\n\n    function endrs_of_skill(uint256 id) public view returns (uint256[] memory) {\n        return skills[id].skill_endorsements;\n    }\n}\n",
  "sourcePath": "D:\\WorkShop\\developmet\\Blockchain\\Decentraskill-master\\contracts\\Decentraskill.sol",
  "compiler": {
    "name": "solc",
    "version": "0.8.1+commit.df193b15.Emscripten.clang"
  },
  "schemaVersion": "3.4.11",
  "updatedAt": "2023-02-02T18:49:11.117Z",
  "networkType": "ethereum",
  "devdoc": {
    "kind": "dev",
    "methods": {},
    "version": 1
  },
  "userdoc": {
    "kind": "user",
    "methods": {},
    "version": 1
  }
}